{
  "_format": "hh-sol-artifact-1",
  "contractName": "Lottery",
  "sourceName": "contracts/Lottery.sol",
  "abi": [
    {
      "anonymous": false,
      "inputs": [
        {
          "indexed": true,
          "internalType": "address",
          "name": "previousOwner",
          "type": "address"
        },
        {
          "indexed": true,
          "internalType": "address",
          "name": "newOwner",
          "type": "address"
        }
      ],
      "name": "OwnershipTransferred",
      "type": "event"
    },
    {
      "inputs": [
        {
          "internalType": "string",
          "name": "name",
          "type": "string"
        }
      ],
      "name": "endLottery",
      "outputs": [],
      "stateMutability": "nonpayable",
      "type": "function"
    },
    {
      "inputs": [
        {
          "internalType": "string",
          "name": "",
          "type": "string"
        }
      ],
      "name": "lotteries",
      "outputs": [
        {
          "internalType": "string",
          "name": "name",
          "type": "string"
        },
        {
          "internalType": "uint256",
          "name": "startDate",
          "type": "uint256"
        },
        {
          "internalType": "bool",
          "name": "ended",
          "type": "bool"
        },
        {
          "internalType": "uint256",
          "name": "prizePool",
          "type": "uint256"
        }
      ],
      "stateMutability": "view",
      "type": "function"
    },
    {
      "inputs": [],
      "name": "owner",
      "outputs": [
        {
          "internalType": "address",
          "name": "",
          "type": "address"
        }
      ],
      "stateMutability": "view",
      "type": "function"
    },
    {
      "inputs": [
        {
          "internalType": "string",
          "name": "name",
          "type": "string"
        }
      ],
      "name": "participate",
      "outputs": [],
      "stateMutability": "payable",
      "type": "function"
    },
    {
      "inputs": [],
      "name": "renounceOwnership",
      "outputs": [],
      "stateMutability": "nonpayable",
      "type": "function"
    },
    {
      "inputs": [
        {
          "internalType": "string",
          "name": "name",
          "type": "string"
        },
        {
          "internalType": "uint256",
          "name": "startDate",
          "type": "uint256"
        }
      ],
      "name": "startLottery",
      "outputs": [],
      "stateMutability": "nonpayable",
      "type": "function"
    },
    {
      "inputs": [
        {
          "internalType": "address",
          "name": "newOwner",
          "type": "address"
        }
      ],
      "name": "transferOwnership",
      "outputs": [],
      "stateMutability": "nonpayable",
      "type": "function"
    },
    {
      "inputs": [],
      "name": "withdrawCommission",
      "outputs": [],
      "stateMutability": "nonpayable",
      "type": "function"
    }
  ],
  "bytecode": "0x608060405234801561001057600080fd5b5061002d61002261003260201b60201c565b61003a60201b60201c565b6100fe565b600033905090565b60008060009054906101000a900473ffffffffffffffffffffffffffffffffffffffff169050816000806101000a81548173ffffffffffffffffffffffffffffffffffffffff021916908373ffffffffffffffffffffffffffffffffffffffff1602179055508173ffffffffffffffffffffffffffffffffffffffff168173ffffffffffffffffffffffffffffffffffffffff167f8be0079c531659141344cd1fd0a4f28419497f9722a3daafe3b4186f6b6457e060405160405180910390a35050565b611b6b8061010d6000396000f3fe60806040526004361061007b5760003560e01c8063715018a61161004e578063715018a61461011c5780638da5cb5b1461013357806390877e5c1461015e578063f2fde38b146101875761007b565b80631d27769f146100805780633c4969331461009c5780633e25e837146100dc5780636a5dd585146100f3575b600080fd5b61009a60048036038101906100959190610ef2565b6101b0565b005b3480156100a857600080fd5b506100c360048036038101906100be9190610ef2565b6104b1565b6040516100d39493929190610fee565b60405180910390f35b3480156100e857600080fd5b506100f161058c565b005b3480156100ff57600080fd5b5061011a60048036038101906101159190610ef2565b610639565b005b34801561012857600080fd5b50610131610a8c565b005b34801561013f57600080fd5b50610148610aa0565b604051610155919061107b565b60405180910390f35b34801561016a57600080fd5b50610185600480360381019061018091906110c2565b610ac9565b005b34801561019357600080fd5b506101ae60048036038101906101a9919061114a565b610b94565b005b60006001826040516101c291906111b3565b90815260200160405180910390206001015403610214576040517f08c379a000000000000000000000000000000000000000000000000000000000815260040161020b90611216565b60405180910390fd5b6000151560018260405161022891906111b3565b908152602001604051809103902060020160009054906101000a900460ff16151514610289576040517f08c379a000000000000000000000000000000000000000000000000000000000815260040161028090611282565b60405180910390fd5b6000151560018260405161029d91906111b3565b908152602001604051809103902060050160003373ffffffffffffffffffffffffffffffffffffffff1673ffffffffffffffffffffffffffffffffffffffff16815260200190815260200160002060009054906101000a900460ff1615151461033b576040517f08c379a0000000000000000000000000000000000000000000000000000000008152600401610332906112ee565b60405180910390fd5b6000341161037e576040517f08c379a00000000000000000000000000000000000000000000000000000000081526004016103759061135a565b60405180910390fd5b60018160405161038e91906111b3565b9081526020016040518091039020600401339080600181540180825580915050600190039060005260206000200160009091909190916101000a81548173ffffffffffffffffffffffffffffffffffffffff021916908373ffffffffffffffffffffffffffffffffffffffff1602179055503460018260405161041191906111b3565b9081526020016040518091039020600301600082825461043191906113a9565b925050819055506001808260405161044991906111b3565b908152602001604051809103902060050160003373ffffffffffffffffffffffffffffffffffffffff1673ffffffffffffffffffffffffffffffffffffffff16815260200190815260200160002060006101000a81548160ff02191690831515021790555050565b6001818051602081018201805184825260208301602085012081835280955050505050506000915090508060000180546104ea9061140c565b80601f01602080910402602001604051908101604052809291908181526020018280546105169061140c565b80156105635780601f1061053857610100808354040283529160200191610563565b820191906000526020600020905b81548152906001019060200180831161054657829003601f168201915b5050505050908060010154908060020160009054906101000a900460ff16908060030154905084565b610594610c17565b6000600254116105d9576040517f08c379a00000000000000000000000000000000000000000000000000000000081526004016105d090611489565b60405180910390fd5b6000600254905060006002819055506105f0610aa0565b73ffffffffffffffffffffffffffffffffffffffff166108fc829081150290604051600060405180830381858888f19350505050158015610635573d6000803e3d6000fd5b5050565b610641610c17565b600060018260405161065391906111b3565b908152602001604051809103902060010154036106a5576040517f08c379a000000000000000000000000000000000000000000000000000000000815260040161069c90611216565b60405180910390fd5b600015156001826040516106b991906111b3565b908152602001604051809103902060020160009054906101000a900460ff1615151461071a576040517f08c379a000000000000000000000000000000000000000000000000000000000815260040161071190611282565b60405180910390fd5b600260018260405161072c91906111b3565b9081526020016040518091039020600401805490501015610782576040517f08c379a0000000000000000000000000000000000000000000000000000000008152600401610779906114f5565b60405180910390fd5b6001808260405161079391906111b3565b908152602001604051809103902060020160006101000a81548160ff02191690831515021790555060006001826040516107cd91906111b3565b908152602001604051809103902060030154905060646005826107f09190611515565b6107fa9190611586565b6002600082825461080b91906113a9565b92505081905550600060018360405161082491906111b3565b9081526020016040518091039020600401805490506108618460405160200161084d9190611603565b604051602081830303815290604052610c95565b61086b9190611625565b9050600060018460405161087f91906111b3565b9081526020016040518091039020600401805490506108bc856040516020016108a891906116a2565b604051602081830303815290604052610c95565b6108c69190611625565b905080820361090e576001846040516108df91906111b3565b90815260200160405180910390206004018054905060018261090191906113a9565b61090b9190611625565b90505b60018460405161091e91906111b3565b90815260200160405180910390206004018281548110610941576109406116c4565b5b9060005260206000200160009054906101000a900473ffffffffffffffffffffffffffffffffffffffff1673ffffffffffffffffffffffffffffffffffffffff166108fc60646046866109949190611515565b61099e9190611586565b9081150290604051600060405180830381858888f193505050501580156109c9573d6000803e3d6000fd5b506001846040516109da91906111b3565b908152602001604051809103902060040181815481106109fd576109fc6116c4565b5b9060005260206000200160009054906101000a900473ffffffffffffffffffffffffffffffffffffffff1673ffffffffffffffffffffffffffffffffffffffff166108fc6064601986610a509190611515565b610a5a9190611586565b9081150290604051600060405180830381858888f19350505050158015610a85573d6000803e3d6000fd5b5050505050565b610a94610c17565b610a9e6000610ccc565b565b60008060009054906101000a900473ffffffffffffffffffffffffffffffffffffffff16905090565b610ad1610c17565b6000600183604051610ae391906111b3565b90815260200160405180910390206001015414610b35576040517f08c379a0000000000000000000000000000000000000000000000000000000008152600401610b2c9061173f565b60405180910390fd5b6000600183604051610b4791906111b3565b9081526020016040518091039020905082816000019081610b68919061190b565b5081816001018190555060008160020160006101000a81548160ff021916908315150217905550505050565b610b9c610c17565b600073ffffffffffffffffffffffffffffffffffffffff168173ffffffffffffffffffffffffffffffffffffffff1603610c0b576040517f08c379a0000000000000000000000000000000000000000000000000000000008152600401610c0290611a4f565b60405180910390fd5b610c1481610ccc565b50565b610c1f610d90565b73ffffffffffffffffffffffffffffffffffffffff16610c3d610aa0565b73ffffffffffffffffffffffffffffffffffffffff1614610c93576040517f08c379a0000000000000000000000000000000000000000000000000000000008152600401610c8a90611abb565b60405180910390fd5b565b6000424483604051602001610cac93929190611afc565b6040516020818303038152906040528051906020012060001c9050919050565b60008060009054906101000a900473ffffffffffffffffffffffffffffffffffffffff169050816000806101000a81548173ffffffffffffffffffffffffffffffffffffffff021916908373ffffffffffffffffffffffffffffffffffffffff1602179055508173ffffffffffffffffffffffffffffffffffffffff168173ffffffffffffffffffffffffffffffffffffffff167f8be0079c531659141344cd1fd0a4f28419497f9722a3daafe3b4186f6b6457e060405160405180910390a35050565b600033905090565b6000604051905090565b600080fd5b600080fd5b600080fd5b600080fd5b6000601f19601f8301169050919050565b7f4e487b7100000000000000000000000000000000000000000000000000000000600052604160045260246000fd5b610dff82610db6565b810181811067ffffffffffffffff82111715610e1e57610e1d610dc7565b5b80604052505050565b6000610e31610d98565b9050610e3d8282610df6565b919050565b600067ffffffffffffffff821115610e5d57610e5c610dc7565b5b610e6682610db6565b9050602081019050919050565b82818337600083830152505050565b6000610e95610e9084610e42565b610e27565b905082815260208101848484011115610eb157610eb0610db1565b5b610ebc848285610e73565b509392505050565b600082601f830112610ed957610ed8610dac565b5b8135610ee9848260208601610e82565b91505092915050565b600060208284031215610f0857610f07610da2565b5b600082013567ffffffffffffffff811115610f2657610f25610da7565b5b610f3284828501610ec4565b91505092915050565b600081519050919050565b600082825260208201905092915050565b60005b83811015610f75578082015181840152602081019050610f5a565b60008484015250505050565b6000610f8c82610f3b565b610f968185610f46565b9350610fa6818560208601610f57565b610faf81610db6565b840191505092915050565b6000819050919050565b610fcd81610fba565b82525050565b60008115159050919050565b610fe881610fd3565b82525050565b600060808201905081810360008301526110088187610f81565b90506110176020830186610fc4565b6110246040830185610fdf565b6110316060830184610fc4565b95945050505050565b600073ffffffffffffffffffffffffffffffffffffffff82169050919050565b60006110658261103a565b9050919050565b6110758161105a565b82525050565b6000602082019050611090600083018461106c565b92915050565b61109f81610fba565b81146110aa57600080fd5b50565b6000813590506110bc81611096565b92915050565b600080604083850312156110d9576110d8610da2565b5b600083013567ffffffffffffffff8111156110f7576110f6610da7565b5b61110385828601610ec4565b9250506020611114858286016110ad565b9150509250929050565b6111278161105a565b811461113257600080fd5b50565b6000813590506111448161111e565b92915050565b6000602082840312156111605761115f610da2565b5b600061116e84828501611135565b91505092915050565b600081905092915050565b600061118d82610f3b565b6111978185611177565b93506111a7818560208601610f57565b80840191505092915050565b60006111bf8284611182565b915081905092915050565b7f4c6f747465727920646f65736e27742065786973740000000000000000000000600082015250565b6000611200601583610f46565b915061120b826111ca565b602082019050919050565b6000602082019050818103600083015261122f816111f3565b9050919050565b7f4c6f74746572792068617320656e646564000000000000000000000000000000600082015250565b600061126c601183610f46565b915061127782611236565b602082019050919050565b6000602082019050818103600083015261129b8161125f565b9050919050565b7f416464726573732068617320616c726561647920706172746963697061746564600082015250565b60006112d8602083610f46565b91506112e3826112a2565b602082019050919050565b60006020820190508181036000830152611307816112cb565b9050919050565b7f4d7573742073656e642045544820746f20706172746963697061746500000000600082015250565b6000611344601c83610f46565b915061134f8261130e565b602082019050919050565b6000602082019050818103600083015261137381611337565b9050919050565b7f4e487b7100000000000000000000000000000000000000000000000000000000600052601160045260246000fd5b60006113b482610fba565b91506113bf83610fba565b92508282019050808211156113d7576113d661137a565b5b92915050565b7f4e487b7100000000000000000000000000000000000000000000000000000000600052602260045260246000fd5b6000600282049050600182168061142457607f821691505b602082108103611437576114366113dd565b5b50919050565b7f4e6f20636f6d6d697373696f6e20746f20776974686472617700000000000000600082015250565b6000611473601983610f46565b915061147e8261143d565b602082019050919050565b600060208201905081810360008301526114a281611466565b9050919050565b7f4e6f7420656e6f756768207061727469636970616e7473000000000000000000600082015250565b60006114df601783610f46565b91506114ea826114a9565b602082019050919050565b6000602082019050818103600083015261150e816114d2565b9050919050565b600061152082610fba565b915061152b83610fba565b925082820261153981610fba565b915082820484148315176115505761154f61137a565b5b5092915050565b7f4e487b7100000000000000000000000000000000000000000000000000000000600052601260045260246000fd5b600061159182610fba565b915061159c83610fba565b9250826115ac576115ab611557565b5b828204905092915050565b7f3100000000000000000000000000000000000000000000000000000000000000600082015250565b60006115ed600183611177565b91506115f8826115b7565b600182019050919050565b600061160f8284611182565b915061161a826115e0565b915081905092915050565b600061163082610fba565b915061163b83610fba565b92508261164b5761164a611557565b5b828206905092915050565b7f3200000000000000000000000000000000000000000000000000000000000000600082015250565b600061168c600183611177565b915061169782611656565b600182019050919050565b60006116ae8284611182565b91506116b98261167f565b915081905092915050565b7f4e487b7100000000000000000000000000000000000000000000000000000000600052603260045260246000fd5b7f4c6f747465727920616c72656164792065786973747300000000000000000000600082015250565b6000611729601683610f46565b9150611734826116f3565b602082019050919050565b600060208201905081810360008301526117588161171c565b9050919050565b60008190508160005260206000209050919050565b60006020601f8301049050919050565b600082821b905092915050565b6000600883026117c17fffffffffffffffffffffffffffffffffffffffffffffffffffffffffffffffff82611784565b6117cb8683611784565b95508019841693508086168417925050509392505050565b6000819050919050565b60006118086118036117fe84610fba565b6117e3565b610fba565b9050919050565b6000819050919050565b611822836117ed565b61183661182e8261180f565b848454611791565b825550505050565b600090565b61184b61183e565b611856818484611819565b505050565b5b8181101561187a5761186f600082611843565b60018101905061185c565b5050565b601f8211156118bf576118908161175f565b61189984611774565b810160208510156118a8578190505b6118bc6118b485611774565b83018261185b565b50505b505050565b600082821c905092915050565b60006118e2600019846008026118c4565b1980831691505092915050565b60006118fb83836118d1565b9150826002028217905092915050565b61191482610f3b565b67ffffffffffffffff81111561192d5761192c610dc7565b5b611937825461140c565b61194282828561187e565b600060209050601f8311600181146119755760008415611963578287015190505b61196d85826118ef565b8655506119d5565b601f1984166119838661175f565b60005b828110156119ab57848901518255600182019150602085019450602081019050611986565b868310156119c857848901516119c4601f8916826118d1565b8355505b6001600288020188555050505b505050505050565b7f4f776e61626c653a206e6577206f776e657220697320746865207a65726f206160008201527f6464726573730000000000000000000000000000000000000000000000000000602082015250565b6000611a39602683610f46565b9150611a44826119dd565b604082019050919050565b60006020820190508181036000830152611a6881611a2c565b9050919050565b7f4f776e61626c653a2063616c6c6572206973206e6f7420746865206f776e6572600082015250565b6000611aa5602083610f46565b9150611ab082611a6f565b602082019050919050565b60006020820190508181036000830152611ad481611a98565b9050919050565b6000819050919050565b611af6611af182610fba565b611adb565b82525050565b6000611b088286611ae5565b602082019150611b188285611ae5565b602082019150611b288284611182565b915081905094935050505056fea26469706673582212200b1ad4db50cdc8911bd54715f722d7c75a2275d6c2e4b570272366d24474dd1664736f6c63430008120033",
  "linkReferences": {},
  "deployedLinkReferences": {}
}